{
  "address": "0x8BC906D08347a7caB66cA492E9a8D03365ED6Bb6",
  "abi": [
    {
      "inputs": [
        {
          "internalType": "address",
          "name": "pricefeedAddress",
          "type": "address"
        }
      ],
      "stateMutability": "nonpayable",
      "type": "constructor"
    },
    {
      "stateMutability": "payable",
      "type": "fallback"
    },
    {
      "inputs": [
        {
          "internalType": "address",
          "name": "",
          "type": "address"
        }
      ],
      "name": "addressToAmount",
      "outputs": [
        {
          "internalType": "uint256",
          "name": "",
          "type": "uint256"
        }
      ],
      "stateMutability": "view",
      "type": "function"
    },
    {
      "inputs": [],
      "name": "fund",
      "outputs": [],
      "stateMutability": "payable",
      "type": "function"
    },
    {
      "inputs": [
        {
          "internalType": "uint256",
          "name": "",
          "type": "uint256"
        }
      ],
      "name": "funders",
      "outputs": [
        {
          "internalType": "address",
          "name": "",
          "type": "address"
        }
      ],
      "stateMutability": "view",
      "type": "function"
    },
    {
      "inputs": [
        {
          "internalType": "uint256",
          "name": "ethAmount",
          "type": "uint256"
        },
        {
          "internalType": "contract AggregatorV3Interface",
          "name": "_pricefeed",
          "type": "address"
        }
      ],
      "name": "getConversionRate",
      "outputs": [
        {
          "internalType": "uint256",
          "name": "",
          "type": "uint256"
        }
      ],
      "stateMutability": "view",
      "type": "function"
    },
    {
      "inputs": [
        {
          "internalType": "contract AggregatorV3Interface",
          "name": "apricefeed",
          "type": "address"
        }
      ],
      "name": "getPrice",
      "outputs": [
        {
          "internalType": "uint256",
          "name": "",
          "type": "uint256"
        }
      ],
      "stateMutability": "view",
      "type": "function"
    },
    {
      "inputs": [],
      "name": "i_owner",
      "outputs": [
        {
          "internalType": "address",
          "name": "",
          "type": "address"
        }
      ],
      "stateMutability": "view",
      "type": "function"
    },
    {
      "inputs": [],
      "name": "minUSD",
      "outputs": [
        {
          "internalType": "uint256",
          "name": "",
          "type": "uint256"
        }
      ],
      "stateMutability": "view",
      "type": "function"
    },
    {
      "inputs": [],
      "name": "pricefeed",
      "outputs": [
        {
          "internalType": "contract AggregatorV3Interface",
          "name": "",
          "type": "address"
        }
      ],
      "stateMutability": "view",
      "type": "function"
    },
    {
      "inputs": [],
      "name": "withdraw",
      "outputs": [],
      "stateMutability": "nonpayable",
      "type": "function"
    },
    {
      "stateMutability": "payable",
      "type": "receive"
    }
  ],
  "transactionHash": "0x785fce07cf8b103737d7f3ae93a364d291094928e66c26283bcf8cd9fef2e5b8",
  "args": [
    "0x5f4eC3Df9cbd43714FE2740f5E3616155c5b8419"
  ],
  "numDeployments": 1,
  "solcInputHash": "ecb1aa79bdbe598358ca4eb3f6250f0f",
  "bytecode": "0x60a060405234801561001057600080fd5b50604051610dfd380380610dfd83398181016040528101906100329190610110565b3373ffffffffffffffffffffffffffffffffffffffff1660808173ffffffffffffffffffffffffffffffffffffffff168152505080600260006101000a81548173ffffffffffffffffffffffffffffffffffffffff021916908373ffffffffffffffffffffffffffffffffffffffff1602179055505061013d565b600080fd5b600073ffffffffffffffffffffffffffffffffffffffff82169050919050565b60006100dd826100b2565b9050919050565b6100ed816100d2565b81146100f857600080fd5b50565b60008151905061010a816100e4565b92915050565b600060208284031215610126576101256100ad565b5b6000610134848285016100fb565b91505092915050565b608051610c9e61015f6000396000818161037201526105a20152610c9e6000f3fe60806040526004361061008a5760003560e01c806398e70cf91161005957806398e70cf91461015f578063b60d42881461019c578063dba6335f146101a6578063dc0d3dff146101d1578063dc992aa01461020e57610099565b80633c7e7d28146100a35780633ccfd60b146100e057806341976e09146100f7578063590f21131461013457610099565b3661009957610097610239565b005b6100a1610239565b005b3480156100af57600080fd5b506100ca60048036038101906100c59190610673565b610358565b6040516100d791906106b9565b60405180910390f35b3480156100ec57600080fd5b506100f5610370565b005b34801561010357600080fd5b5061011e60048036038101906101199190610712565b6104ad565b60405161012b91906106b9565b60405180910390f35b34801561014057600080fd5b5061014961053e565b604051610156919061079e565b60405180910390f35b34801561016b57600080fd5b50610186600480360381019061018191906107e5565b610564565b60405161019391906106b9565b60405180910390f35b6101a4610239565b005b3480156101b257600080fd5b506101bb6105a0565b6040516101c89190610834565b60405180910390f35b3480156101dd57600080fd5b506101f860048036038101906101f3919061084f565b6105c4565b6040516102059190610834565b60405180910390f35b34801561021a57600080fd5b50610223610603565b60405161023091906106b9565b60405180910390f35b6802b5e3af16b188000061026f34600260009054906101000a900473ffffffffffffffffffffffffffffffffffffffff16610564565b116102af576040517f08c379a00000000000000000000000000000000000000000000000000000000081526004016102a6906108d9565b60405180910390fd5b6000339080600181540180825580915050600190039060005260206000200160009091909190916101000a81548173ffffffffffffffffffffffffffffffffffffffff021916908373ffffffffffffffffffffffffffffffffffffffff16021790555034600160003373ffffffffffffffffffffffffffffffffffffffff1673ffffffffffffffffffffffffffffffffffffffff16815260200190815260200160002081905550565b60016020528060005260406000206000915090505481565b7f000000000000000000000000000000000000000000000000000000000000000073ffffffffffffffffffffffffffffffffffffffff163373ffffffffffffffffffffffffffffffffffffffff16146103fe576040517f08c379a00000000000000000000000000000000000000000000000000000000081526004016103f590610945565b60405180910390fd5b60003373ffffffffffffffffffffffffffffffffffffffff164760405161042490610996565b60006040518083038185875af1925050503d8060008114610461576040519150601f19603f3d011682016040523d82523d6000602084013e610466565b606091505b50509050806104aa576040517f08c379a00000000000000000000000000000000000000000000000000000000081526004016104a1906109f7565b60405180910390fd5b50565b6000808273ffffffffffffffffffffffffffffffffffffffff1663feaf968c6040518163ffffffff1660e01b815260040160a060405180830381865afa1580156104fb573d6000803e3d6000fd5b505050506040513d601f19601f8201168201806040525081019061051f9190610aa4565b5050509150506402540be400816105369190610b4e565b915050919050565b600260009054906101000a900473ffffffffffffffffffffffffffffffffffffffff1681565b600080610570836104ad565b90506000670de0b6b3a764000085836105899190610bc6565b6105939190610c37565b9050809250505092915050565b7f000000000000000000000000000000000000000000000000000000000000000081565b600081815481106105d457600080fd5b906000526020600020016000915054906101000a900473ffffffffffffffffffffffffffffffffffffffff1681565b6802b5e3af16b188000081565b600080fd5b600073ffffffffffffffffffffffffffffffffffffffff82169050919050565b600061064082610615565b9050919050565b61065081610635565b811461065b57600080fd5b50565b60008135905061066d81610647565b92915050565b60006020828403121561068957610688610610565b5b60006106978482850161065e565b91505092915050565b6000819050919050565b6106b3816106a0565b82525050565b60006020820190506106ce60008301846106aa565b92915050565b60006106df82610635565b9050919050565b6106ef816106d4565b81146106fa57600080fd5b50565b60008135905061070c816106e6565b92915050565b60006020828403121561072857610727610610565b5b6000610736848285016106fd565b91505092915050565b6000819050919050565b600061076461075f61075a84610615565b61073f565b610615565b9050919050565b600061077682610749565b9050919050565b60006107888261076b565b9050919050565b6107988161077d565b82525050565b60006020820190506107b3600083018461078f565b92915050565b6107c2816106a0565b81146107cd57600080fd5b50565b6000813590506107df816107b9565b92915050565b600080604083850312156107fc576107fb610610565b5b600061080a858286016107d0565b925050602061081b858286016106fd565b9150509250929050565b61082e81610635565b82525050565b60006020820190506108496000830184610825565b92915050565b60006020828403121561086557610864610610565b5b6000610873848285016107d0565b91505092915050565b600082825260208201905092915050565b7f6e6f7420656e6f7567682066756e640000000000000000000000000000000000600082015250565b60006108c3600f8361087c565b91506108ce8261088d565b602082019050919050565b600060208201905081810360008301526108f2816108b6565b9050919050565b7f6e6f74206f776e65720000000000000000000000000000000000000000000000600082015250565b600061092f60098361087c565b915061093a826108f9565b602082019050919050565b6000602082019050818103600083015261095e81610922565b9050919050565b600081905092915050565b50565b6000610980600083610965565b915061098b82610970565b600082019050919050565b60006109a182610973565b9150819050919050565b7f6661696c65642063616c6c000000000000000000000000000000000000000000600082015250565b60006109e1600b8361087c565b91506109ec826109ab565b602082019050919050565b60006020820190508181036000830152610a10816109d4565b9050919050565b600069ffffffffffffffffffff82169050919050565b610a3681610a17565b8114610a4157600080fd5b50565b600081519050610a5381610a2d565b92915050565b6000819050919050565b610a6c81610a59565b8114610a7757600080fd5b50565b600081519050610a8981610a63565b92915050565b600081519050610a9e816107b9565b92915050565b600080600080600060a08688031215610ac057610abf610610565b5b6000610ace88828901610a44565b9550506020610adf88828901610a7a565b9450506040610af088828901610a8f565b9350506060610b0188828901610a8f565b9250506080610b1288828901610a44565b9150509295509295909350565b7f4e487b7100000000000000000000000000000000000000000000000000000000600052601160045260246000fd5b6000610b5982610a59565b9150610b6483610a59565b9250828202610b7281610a59565b91507f80000000000000000000000000000000000000000000000000000000000000008414600084121615610baa57610ba9610b1f565b5b8282058414831517610bbf57610bbe610b1f565b5b5092915050565b6000610bd1826106a0565b9150610bdc836106a0565b9250828202610bea816106a0565b91508282048414831517610c0157610c00610b1f565b5b5092915050565b7f4e487b7100000000000000000000000000000000000000000000000000000000600052601260045260246000fd5b6000610c42826106a0565b9150610c4d836106a0565b925082610c5d57610c5c610c08565b5b82820490509291505056fea26469706673582212209ccbd5c101af2b89092e33695f01f2fe670fcd1955aef455b8a8c5ec43b7bf5764736f6c63430008180033",
  "devdoc": {
    "kind": "dev",
    "methods": {},
    "version": 1
  },
  "userdoc": {
    "kind": "user",
    "methods": {},
    "version": 1
  },
  "storageLayout": {
    "storage": [
      {
        "astId": 57,
        "contract": "contracts/FundMe.sol:FundMe",
        "label": "funders",
        "offset": 0,
        "slot": "0",
        "type": "t_array(t_address)dyn_storage"
      },
      {
        "astId": 61,
        "contract": "contracts/FundMe.sol:FundMe",
        "label": "addressToAmount",
        "offset": 0,
        "slot": "1",
        "type": "t_mapping(t_address,t_uint256)"
      },
      {
        "astId": 66,
        "contract": "contracts/FundMe.sol:FundMe",
        "label": "pricefeed",
        "offset": 0,
        "slot": "2",
        "type": "t_contract(AggregatorV3Interface)45"
      }
    ],
    "types": {
      "t_address": {
        "encoding": "inplace",
        "label": "address",
        "numberOfBytes": "20"
      },
      "t_array(t_address)dyn_storage": {
        "base": "t_address",
        "encoding": "dynamic_array",
        "label": "address[]",
        "numberOfBytes": "32"
      },
      "t_contract(AggregatorV3Interface)45": {
        "encoding": "inplace",
        "label": "contract AggregatorV3Interface",
        "numberOfBytes": "20"
      },
      "t_mapping(t_address,t_uint256)": {
        "encoding": "mapping",
        "key": "t_address",
        "label": "mapping(address => uint256)",
        "numberOfBytes": "32",
        "value": "t_uint256"
      },
      "t_uint256": {
        "encoding": "inplace",
        "label": "uint256",
        "numberOfBytes": "32"
      }
    }
  }
}